S0230000746362305F706572696F6469635F316D735F696E746572727570742E737265632E
S11300000C9474000C9486000C9486000C94860066
S11300100C9486000C9486000C9486000C94860044
S11300200C9486000C9486000C9486000C94860034
S11300300C9488000C9486000C9486000C94860022
S11300400C9486000C9486000C9486000C94860014
S11300500C9486000C9486000C9486000C94860004
S11300600C9486000C9486000C9486000C948600F4
S11300700C9486000C9486000C9486000C948600E4
S11300800C9486000C9486000C9486000C948600D4
S11300900C9486000C9486000C9486000C948600C4
S11300A00C9486000C9486000C9486000C948600B4
S11300B00C9486000C9486000C9486000C948600A4
S11300C00C9486000C9486000C9486000C94860094
S11300D00C9486000C9486000C9486000C94860084
S11300E00C9486000C94860011241FBECFEFCDBF64
S11300F0DFE7DEBF20E4A0E0B0E401C01D92A4303D
S1130100B207E1F70E94B4000C94F4000C940000D0
S11301101F920F920FB60F9211248F939F93AF9358
S1130120BF938091060B80FF16C081E08093060B7D
S11301308091004090910140A0910240B091034011
S11301400196A11DB11D8093004090930140A0939E
S11301500240B0930340BF91AF919F918F910F9054
S11301600FBE0F901F90189588ED84BF1092600009
S113017084BF94E29093680084BF10926100E0E42D
S1130180F4E080E481838583E0E0FBE080818E7F7E
S1130190808311828FEB9DE58487958781E0868338
S11301A085838083789440E050E0BA01E0E4F4E091
S11301B020E48091004090910140A0910240B091D0
S11301C00340841B950BA60BB70B843F9140A105FC
S11301D0B10578F340910040509101406091024094
S10F01E0709103402783E5CFF894FFCF13
S9030000FC
