:100000000C9474000C948B000C948B000C948B005B
:100010000C948B000C948B000C948B000C948B0034
:100020000C948B000C948B000C948B000C948B0024
:100030000C948B000C948B000C948B000C948B0014
:100040000C948B000C948B000C948B000C948B0004
:100050000C948B000C948B000C948B000C948B00F4
:100060000C948B000C948B000C948B000C948B00E4
:100070000C948B000C948B000C948B000C948B00D4
:100080000C948B000C948B000C948B000C948B00C4
:100090000C948B000C948B000C948B000C948B00B4
:1000A0000C948B000C948B000C948B000C948B00A4
:1000B0000C948B000C948B000C948B000C948B0094
:1000C0000C948B000C948B000C948B000C948B0084
:1000D0000C948B000C948B000C948B000C948B0074
:1000E0000C948B000C948B0011241FBECFEFCDBF5E
:1000F000DFE7DEBF10E4A0E0B0E4E4ECF2E000E013
:100100000BBF02C007900D92A831B107D9F70E942A
:100110008D000C9460010C94000088ED84BF109257
:10012000600084BF94E29093680084BF81E0809374
:1001300061001092E60580930104E0E0FAE010828D
:1001400083E1818310A211A28FEF9FEF86A397A373
:1001500010A611A6838700E010E4C0E0D0E00F2EC7
:10016000F0E24F2EFEE45F2E612C712CF02DF80191
:100170002081318140E050E060E07BE187EB90E05E
:100180000E942401CA01B901A30192010E94240125
:10019000211531054105510509F443C069017A0172
:1001A000F1E0CF1AD108E108F108C114D10421E02F
:1001B000E206F104B0F5FE01EE0FFF1FEC0FFD1F8C
:1001C000E050F04CC281D701C601AA27BB279C0191
:1001D000AD012F5F3F4F4F4F5F4FA2E3B0E00E9452
:1001E000460124E630E040E050E00E942401E0E0D7
:1001F000FAE080811082C6A2D7A2822F932FA42F6B
:10020000B52F0097E1E0AE07B10520F08FEF9FEF2B
:10021000A0E0B0E0E0E0FAE080A791A7C160C08371
:1002200008C021960D5F1F4FC830D10509F09FCF40
:1002300001C0FFCFE0E0FAE010828FEF9FEF86A3CE
:1002400097A310A611A6F5CFA1E21A2EAA1BBB1BDD
:10025000FD010DC0AA1FBB1FEE1FFF1FA217B30792
:10026000E407F50720F0A21BB30BE40BF50B661FA8
:10027000771F881F991F1A9469F76095709580956C
:1002800090959B01AC01BD01CF0108950E945101E1
:10029000A59F900DB49F900DA49F800D911D1124DA
:1002A0000895A29FB001B39FC001A39F700D811D4F
:1002B0001124911DB29F700D811D1124911D08956F
:0402C000F894FFCFE0
:1002C40001000002000204000408000610000840B7
:0802D400000A00010C00040EF9
:00000001FF
