:100000000C9474000C947E000C947E000C947E0082
:100010000C947E000C947E000C947E000C947E0068
:100020000C947E000C947E000C947E000C947E0058
:100030000C947E000C947E000C947E000C947E0048
:100040000C947E000C947E000C947E000C947E0038
:100050000C947E000C947E000C947E000C947E0028
:100060000C947E000C947E000C947E000C947E0018
:100070000C947E000C947E000C947E000C947E0008
:100080000C947E000C947E000C947E000C947E00F8
:100090000C947E000C947E000C947E000C947E00E8
:1000A0000C947E000C947E000C947E000C947E00D8
:1000B0000C947E000C947E000C947E000C947E00C8
:1000C0000C947E000C947E000C947E000C947E00B8
:1000D0000C947E000C947E000C947E000C947E00A8
:1000E0000C947E000C947E0011241FBECFEFCDBF78
:1000F000DFE7DEBF0E949C000C94EE000C94000031
:100100004091260A50E04F5F5F4F282F249FC00187
:10011000259F900D11249C0136952795369527959E
:10012000ABE7B4E10E94DF0096958795009709F050
:1001300001978093280A089588ED84BF94E29093F4
:10014000680084BF1092600084BF10926100E0E0FC
:10015000FAE010821092E6058BE18093010481E0C1
:1001600083838AE0808387EC86A383E687A382E388
:1001700080A786E982A784E181A786E483A783E339
:100180008183808181608083C0E08C2F0E94800009
:1001900083ED90E30197F1F700C00000CB5FC93613
:1001A000A1F7C4E68C2F0E94800083ED90E30197B5
:1001B000F1F700C00000C550CB3FA1F7E5CFA29FEB
:1001C000B001B39FC001A39F700D811D1124911D2B
:1001D000B29F700D811D1124911D0895F894FFCFD9
:00000001FF
