:100000000C9474000C9486000C9486000C9486006A
:100010000C9486000C9486000C9486000C94860048
:100020000C9486000C9486000C9486000C94860038
:100030000C9486000C9488000C9486000C94860026
:100040000C9486000C9486000C9486000C94860018
:100050000C9486000C9486000C9486000C94860008
:100060000C9486000C9486000C9486000C948600F8
:100070000C9486000C9486000C9486000C948600E8
:100080000C9486000C9486000C9486000C948600D8
:100090000C9486000C9486000C9486000C948600C8
:1000A0000C9486000C9486000C9486000C948600B8
:1000B0000C9486000C9486000C9486000C948600A8
:1000C0000C9486000C9486000C9486000C94860098
:1000D0000C9486000C9486000C9486000C94860088
:1000E0000C9486000C94860011241FBECFEFCDBF68
:1000F000DFE7DEBF20E4A0E0B0E401C01D92A13044
:10010000B207E1F70E94A7000C94D1000C94000004
:100110001F920F920FB60F9211240BB60F928F936E
:100120009F93EF93FF93E0E1FBE091E09683808162
:100130008E7F808390930040FF91EF919F918F91EC
:100140000F900BBE0F900FBE0F901F90189588ED6B
:1001500084BF1092600084BF94E29093680084BFD3
:1001600010926100E0E4F4E080E481838583F894F8
:1001700010920040E0E1FBE0108211828EEF9FEFD1
:100180008487958781E0868385838083E0E4F4E03B
:1001900090E4809100408823E1F31092004097831F
:0601A000F8CFF894FFCF38
:00000001FF
