:100000000C9474000C9493000C9493000C94930043
:100010000C9493000C9493000C9493000C94930014
:100020000C9493000C9493000C9493000C94930004
:100030000C9495000C9493000C9493000C949300F2
:100040000C9493000C9493000C94A6020C949300CF
:100050000C9493000C9493000C9493000C949300D4
:100060000C9493000C9493000C9493000C949300C4
:100070000C9493000C9493000C9493000C949300B4
:100080000C9493000C9493000C9493000C949300A4
:100090000C9493000C9493000C9493000C94930094
:1000A0000C9493000C9493000C9493000C94930084
:1000B0000C9493000C9493000C9493000C94930074
:1000C0000C9493000C9493000C9493000C94930064
:1000D0000C9493000C9493000C9493000C94930054
:1000E0000C9493000C94930011241FBECFEFCDBF4E
:1000F000DFE7DEBF10E4A0E0B0E4E2E2F6E000E01B
:100100000BBF02C007900D92AC30B107D9F720E5C4
:10011000ACE0B0E401C01D92A732B207E1F70E9443
:10012000BD000C940F030C9400001F920F920FB6A9
:100130000F9211248F939F93AF93BF9381E080938D
:10014000060B80910C5090910D50A0910E50B091E3
:100150000F500196A11DB11D80930C5090930D502E
:10016000A0930E50B0930F50BF91AF919F918F917C
:100170000F900FBE0F901F901895CF93DF93CDB7C0
:10018000DEB7A297CDBFDEBFE0E0F4E084E081837C
:100190008683E0E0FBE0108211828FEB9DE584878F
:1001A000958781E08683858380830E949C01789473
:1001B000FE01319680E095EA282F292721938F5F51
:1001C0008031D1F7ECE0F8E40F2EFCE08F2EF0E563
:1001D0009F2EF02D80E095EA282F292721938F5F0D
:1001E000E815F905C9F7A0900C50B0900D50C090DB
:1001F0000E50D0900F5018ECE12EF12C00E010E0E2
:1002000020E130E0AE014F5E5F4FBE016F5F7F4F78
:1002100080E00E94BE0120900C5030900D50409024
:100220000E5050900F501AA219A23E0181E1680EA3
:10023000711C60910C5070910D5080910E509091F6
:100240000F500E94040280910C5090910D50A0918B
:100250000E50B0910F5082199309A409B509843644
:100260009105A105B10558F020900C5030900D502B
:1002700040900E5050900F50E4E0E09307040E942D
:100280007D02833009F04CC0F9A1F1112BC0998196
:10029000898998130DC0FE013296DE015296919124
:1002A0008D91981305C06E167F06C9F781E089A36A
:1002B0000E948302A0900C50B0900D50C0900E5040
:1002C000D0900F5018E8E12E13E1F12E00E010E07D
:1002D00020E038E04CE050E46CE078E480E00E94FC
:1002E000BE01A7CFEAA1E11118C0ECE0F8E49081CB
:1002F000ECE0F0E4808198130DC0EDE0F8E4ADE0AF
:10030000B0E491918D91981305C0E815F905C9F7EE
:10031000F1E0FAA30E9483028CCF0E94830289CF6E
:100320000E947D02843009F084CF0E9480020E94E6
:1003300083021AA219A27DCFE0E0F4E080E5818378
:1003400080E2828380E881838583E0E2F4E091E0CB
:1003500091839583E0E1F0E510821182168A9FEF88
:10036000958713821482E0E4F9E0108211821182F1
:1003700093E290831282838380E00895AF92BF92CC
:10038000CF92DF92EF92FF920F931F93CF9321159D
:10039000310559F190912650911129C0823048F5CC
:1003A000E0E1F0E5C1E0C68B828390E0DC01AA0FBA
:1003B000BB1F8A0F9B1F880F991F8050904C83830F
:1003C000948365837683478350872187328713869A
:1003D0001486E686F786008B118BA28AB38AC48ABC
:1003E000D58A1182C08380E005C081E003C082E02D
:1003F00001C081E0CF911F910F91FF90EF90DF90AE
:10040000CF90BF90AF900895CF92DF92EF92FF927E
:100410000F931F93CF93DF93209126502223A9F1AE
:10042000C0901E50D0901F50E0902050F09021506E
:10043000C114D104E104F10441F100912250109162
:1004400023502091245030912550AB01BC01401B1A
:10045000510B620B730B4C155D056E057F05A8F003
:1004600010924209E0911350F0911450309729F006
:10047000A381B481858115968C93E0E1F0E583E05A
:10048000818384E08083168A2FC080911050813050
:1004900059F5E0E4F9E080818E7F80831182A0E14C
:1004A000B0E51396CD91DC9114978A8181628083A7
:1004B0008B819C812D81EC012E8382E08C931B9695
:1004C0001D921C921C9780E883831596ED91FC91F8
:1004D0001697309711F0808102C080911D50E0E4A2
:1004E000F9E0848381E08283DF91CF911F910F91A6
:1004F000FF90EF90DF90CF90089580911050089575
:1005000080911150089510924209E0911350F0919A
:100510001450309729F0A381B481858115968C936E
:10052000E0E1F0E5168A10821182158216821782A8
:100530001086118612861386148616861786108AF0
:10054000118A128A138A148A158A08951F920F92AB
:100550000FB60F9211240BB60F922F933F938F93E8
:100560009F93AF93BF93CF93DF93EF93FF938091CC
:10057000430988230CF042C0E0E4F9E080E883837B
:100580002481E0911750F0911850309739F0809104
:100590001B5090911C50E80FF91F2083E0E1F0E51B
:1005A0008385948501968387948723853485818507
:1005B00092852817390780F010924209A381B481EF
:1005C0001396CD91DC91149715968C918D831182A1
:1005D00083E08083168A12C0E0911550F091165086
:1005E000309741F080911B5090911C50E80FF91FFB
:1005F000808102C080911D5080934409FF91EF914A
:10060000DF91CF91BF91AF919F918F913F912F91AA
:100610000F900BBE0F900FBE0F901F901895F8947F
:02062000FFCF0A
:0C06220000000200048001030420040119
:00000001FF
