:100000000C9474000C9486000C9486000C9486006A
:100010000C9486000C9486000C9486000C94860048
:100020000C9486000C9486000C9486000C94860038
:100030000C9488000C9486000C9486000C94860026
:100040000C9486000C9486000C9486000C94860018
:100050000C9486000C9486000C9486000C94860008
:100060000C9486000C9486000C9486000C948600F8
:100070000C9486000C9486000C9486000C948600E8
:100080000C9486000C9486000C9486000C948600D8
:100090000C9486000C9486000C9486000C948600C8
:1000A0000C9486000C9486000C9486000C948600B8
:1000B0000C9486000C9486000C9486000C948600A8
:1000C0000C9486000C9486000C9486000C94860098
:1000D0000C9486000C9486000C9486000C94860088
:1000E0000C9486000C94860011241FBECFEFCDBF68
:1000F000DFE7DEBF20E4A0E0B0E401C01D92A7303E
:10010000B207E1F70E94F0000C9475010C94000016
:100110001F920F920FB60F9211240BB60F922F93CE
:100120003F934F935F936F937F938F939F93AF937F
:10013000BF93EF93FF93E0E0FBE081E0868384854B
:10014000958520910040211110C08093014090932B
:10015000024081E0809300401092034010920440DE
:10016000109205401092064028C020910140309125
:100170000240AC01421B530B80930140909302401C
:100180004115510549F41092034010920440109219
:1001900005401092064011C09A0140E050E060E036
:1001A00079E08DE390E00E94530120930340309367
:1001B00004404093054050930640FF91EF91BF915A
:1001C000AF919F918F917F916F915F914F913F91EF
:1001D0002F910F900BBE0F900FBE0F901F90189590
:1001E000CF93DF9300D000D0CDB7DEB7E0E0F4E0EE
:1001F00084E081838683E0EAF6E01082A0E0B2E04A
:10020000A283B38381E080831092E605E0E0FAE008
:10021000108293E191832FE93FE026A337A320EDDD
:1002200037E020A731A78083E0E8F6E01082128251
:1002300090819064908390819160908350961C92FD
:100240005097DF968C93E0E0FBE01082118284836C
:100250008683858380837894E0E0F4E024E027833C
:1002600019821A821B821C8289819A81AB81BC818E
:1002700080349D40A340B10590F7000089819A81A8
:10028000AB81BC810196A11DB11D89839A83AB838B
:10029000BC8389819A81AB81BC8180349D40A3401D
:1002A000B10558F3DCCFA1E21A2EAA1BBB1BFD013E
:1002B0000DC0AA1FBB1FEE1FFF1FA217B307E40745
:1002C000F50720F0A21BB30BE40BF50B661F771F9D
:1002D000881F991F1A9469F760957095809590957D
:0E02E0009B01AC01BD01CF010895F894FFCF42
:00000001FF
