:100000000C9474000C947E000C947E000C947E0082
:100010000C947E000C947E000C947E000C947E0068
:100020000C947E000C947E000C947E000C947E0058
:100030000C947E000C947E000C947E000C947E0048
:100040000C947E000C947E000C947E000C947E0038
:100050000C947E000C947E000C947E000C947E0028
:100060000C947E000C947E000C947E000C947E0018
:100070000C947E000C947E000C947E000C947E0008
:100080000C947E000C947E000C947E000C947E00F8
:100090000C947E000C947E000C947E000C947E00E8
:1000A0000C947E000C947E000C947E000C947E00D8
:1000B0000C947E000C947E000C947E000C947E00C8
:1000C0000C947E000C947E000C947E000C947E00B8
:1000D0000C947E000C947E000C947E000C947E00A8
:1000E0000C947E000C947E0011241FBECFEFCDBF78
:1000F000DFE7DEBF0E9480000C94C9000C94000072
:10010000CF93DF9300D0CDB7DEB7E0E0F4E080ED31
:10011000818380E2828380E88583E0E4F9E01182D4
:1001200083E280838AEA898385E58A8300E014E09C
:1001300020E80F2EFFE3DF2EF02D0F2EFDE0EF2E37
:10014000F02D0F2EF3E0FF2EF02D30E0D8011696A3
:100150002C938981848383818823ECF72383848192
:100160008A81848383818823ECF723838481D80167
:1001700015962C938D2D9E2DAF2DB32F0000AC0125
:10018000BD010197A109B109452B462B472BB1F7BA
:06019000DDCFF894FFCF63
:00000001FF
