S0280000415474696E79333231375F544342305F506572696F6469635F316D735F496E742E73726563E6
S11300000C943E000C9450000C9450000C9450003E
S11300100C9450000C9450000C9450000C9450001C
S11300200C9450000C9450000C9450000C9450000C
S11300300C9450000C9480000C9450000C945000CC
S11300400C9450000C9450000C9450000C945000EC
S11300500C9450000C9450000C9450000C945000DC
S11300600C9450000C9450000C9450000C945000CC
S11300700C9450000C9450000C94500011241FBE9A
S1130080CFEFCDBFDFE3DEBF28E3A0E0B8E301C0DC
S11300901D92A430B207E1F70E94AC000C94D20088
S11300A00C940000E0E4FAE080818E7F808311826A
S11300B08FE097E28487958781E0868385838083B8
S11300C00895E0E0F4E088E081838583089588E082
S11300D080930704089588ED84BF1092780084BF4C
S11300E010927C0084BF1092700084BF91E09093C2
S11300F0610084BF1092600084BF10926200089572
S11301001F920F920FB60F9211248F939F93AF9368
S1130110BF938091460A80FF16C081E08093460A0F
S11301208091003890910138A0910238B091033841
S11301300196A11DB11D8093003890930138A093BE
S11301400238B0930338BF91AF919F918F910F9074
S11301500FBE0F901F9018950E946B000E946100C3
S11301600E9452007894C12CD12C760180910038E1
S113017090910138A0910238B09103388C199D09EF
S1130180AE09BF09843F9140A105B10578F3C09041
S11301900038D0900138E0900238F09003380E9483
S10B01A06700E4CFF894FFCFDF
S9030000FC
