:100000000C9474000C948B000C948B000C948B005B
:100010000C948B000C948B000C948B000C948B0034
:100020000C948B000C948B000C948B000C948B0024
:100030000C948B000C948B000C948B000C948B0014
:100040000C948B000C948B000C948B000C948B0004
:100050000C948B000C948B000C948B000C948B00F4
:100060000C948B000C948B000C948B000C948B00E4
:100070000C948B000C948B000C948B000C948B00D4
:100080000C948B000C948B000C948B000C948B00C4
:100090000C948B000C948B000C948B000C948B00B4
:1000A0000C948B000C948B000C948B000C948B00A4
:1000B0000C948B000C948B000C948B000C948B0094
:1000C0000C948B000C948B000C948B000C948B0084
:1000D0000C948B000C948B000C948B000C948B0074
:1000E0000C948B000C948B0011241FBECFEFCDBF5E
:1000F000DFE7DEBF10E4A0E0B0E4E2EEF1E000E014
:100100000BBF02C007900D92A83AB107D9F70E9421
:10011000BD000C94EF000C940000E0E0F8E083E8F0
:1001200096E08087918780EC868383E08783E0E098
:10013000F4E081E0818382E082830895E0E0F8E0EA
:10014000948195FFFDCF809302080895CF93DF93AC
:10015000EC018881882331F021960E949E008991CC
:100160008111FBCFDF91CF910895E0E0F8E0848129
:100170008823ECF78091000808950E948D002FE7F6
:1001800088E391E0215080409040E1F700C00000FA
:1001900084EA90E40E94A60080E090E40E94A60019
:1001A00086E290E40E94A60080E090E40E94A6000F
:1001B00087E490E40E94A6008AE590E40E94A600ED
:1001C0008FE790E40E94A6000E94B500C82F0E940D
:1001D0009E00CD30C9F78AE00E949E00F5CFF894CA
:0201E000FFCF4F
:1001E2003D3D3D3D3D3D3D3D3D3D3D3D3D3D3D3D3D
:1001F2003D3D3D3D3D3D3D3D3D3D3D3D3D3D3D3D2D
:100202003D3D3D0D0A0041565231323844413438A9
:100212002055534152543020506F6C6C696E6720E8
:1002220044656D6F0D0A004563686F204D6F64650C
:10023200204163746976650D0A0054797065206106
:100242006E792063686172616374657220746F20D5
:100252006563686F206974206261636B0D0A002D0B
:100262002D2D2D2D2D2D2D2D2D2D2D2D2D2D2D2DBC
:100272002D2D2D2D2D2D2D2D2D2D2D2D2D2D2D2DAC
:080282002D2D0D0A0D0A0000EC
:00000001FF
