:100000000C9474000C947E000C947E000C947E0082
:100010000C947E000C947E000C947E000C947E0068
:100020000C947E000C947E000C947E000C947E0058
:100030000C947E000C947E000C947E000C947E0048
:100040000C947E000C947E000C947E000C947E0038
:100050000C947E000C947E000C947E000C947E0028
:100060000C947E000C947E000C947E000C947E0018
:100070000C947E000C947E000C947E000C947E0008
:100080000C947E000C947E000C947E000C947E00F8
:100090000C947E000C947E000C947E000C947E00E8
:1000A0000C947E000C947E000C947E000C947E00D8
:1000B0000C947E000C947E000C947E000C947E00C8
:1000C0000C947E000C947E000C947E000C947E00B8
:1000D0000C947E000C947E000C947E000C947E00A8
:1000E0000C947E000C947E0011241FBECFEFCDBF78
:1000F000DFE7DEBF0E9480000C9465010C940000D5
:10010000CF93DF931F92CDB7DEB71982E0E4F4E01E
:1001100080E48183858360EA76E881E090E00E9454
:10012000D60000E414E06894FF24F6F8EF2CAE014A
:100130004F5F5F4F60E080E50E94030181111DC0A9
:1001400083E0F801E682EFE1FEE43197F1F700C0C9
:100150000000F801E582EFE1FEE43197F1F700C01D
:100160000000815071F7FFE926E881E0F15020405E
:100170008040E1F700C00000DACFF801F6828FE49A
:1001800093EC0197F1F700C00000F5828FE493EC47
:100190000197F1F700C000009FEFE0E7F2E0915017
:1001A000E040F040E1F700C00000C1CF21E0209323
:1001B0000309611571058105910521F460EA76E86E
:1001C00081E090E09B01AC01220F331F441F551FBB
:1001D00060E079E08DE390E00E944301DA01C9011B
:1001E0000597A109B1098F3F9105A105B10529F036
:1001F00020F08FEF90E0A0E0B0E0E0E0F9E086834F
:1002000081E08583089541155105D9F1880F8093C8
:100210000709E0E0F9E0958196FFFDCF909105098F
:1002200094FF05C083E08093040980E00895609303
:100230000809E0E0F9E0958196FFFDCF909105096E
:1002400094FF05C083E08093040980E008958160F5
:1002500080930709E0E0F9E085818823ECF780913D
:10026000050984FF05C083E08093040980E00895B8
:10027000E0E0F9E0808597E09483FA01808381E0F3
:10028000089580E00895A1E21A2EAA1BBB1BFD0170
:100290000DC0AA1FBB1FEE1FFF1FA217B307E40765
:1002A000F50720F0A21BB30BE40BF50B661F771FBD
:1002B000881F991F1A9469F760957095809590959D
:0E02C0009B01AC01BD01CF010895F894FFCF62
:00000001FF
