S02A000044617932345F4C61625F5761746368646F675F53797374656D5F5265636F766572792E73726563E6
S11300000C9474000C947E000C947E000C947E007E
S11300100C947E000C947E000C947E000C947E0064
S11300200C947E000C947E000C947E000C947E0054
S11300300C947E000C947E000C947E000C947E0044
S11300400C947E000C947E000C947E000C947E0034
S11300500C947E000C947E000C947E000C947E0024
S11300600C947E000C947E000C947E000C947E0014
S11300700C947E000C947E000C947E000C947E0004
S11300800C947E000C947E000C947E000C947E00F4
S11300900C947E000C947E000C947E000C947E00E4
S11300A00C947E000C947E000C947E000C947E00D4
S11300B00C947E000C947E000C947E000C947E00C4
S11300C00C947E000C947E000C947E000C947E00B4
S11300D00C947E000C947E000C947E000C947E00A4
S11300E00C947E000C947E0011241FBECFEFCDBF74
S11300F0DFE7DEBF0E9480000C94E3000C94000054
S1130100E0E4F0E0C081C083E0E4F4E080E48183D3
S113011085836AE080E091E00E94DD00E0E0F1E0A8
S1130120818180FDFDCFC3FD40C0C4FF40C092E08B
S11301303FC0A8952683AFE1BEE41197F1F700C054
S113014000002583ABE7B2E91197F1F700C0000086
S11301508F5F891770F3A895BFEB24ED31E0B150A0
S113016020403040E1F700C00000A89585E0E0E4BD
S1130170F4E090E4A8959783208526FF0AC04FE514
S1130180AAEEB0E04150A040B040E1F700C000004A
S113019006C0AFE4B3EC1197F1F700C00000815042
S11301A049F780E480934604FFCF93E001C091E0D7
S11301B080E0E0E4F4E020E4BCCFDC0128ED20930F
S10D01C034006C930895F894FFCF07
S9030000FC
