:100000000C9474000C9486000C9486000C9486006A
:100010000C9486000C9486000C9486000C94860048
:100020000C9486000C9486000C9486000C94860038
:100030000C9488000C9486000C9486000C94860026
:100040000C9486000C9486000C9486000C94860018
:100050000C9486000C9486000C9486000C94860008
:100060000C9486000C9486000C9486000C948600F8
:100070000C9486000C9486000C9486000C948600E8
:100080000C9486000C9486000C9486000C948600D8
:100090000C9486000C9486000C9486000C948600C8
:1000A0000C9486000C9486000C9486000C948600B8
:1000B0000C9486000C9486000C9486000C948600A8
:1000C0000C9486000C9486000C9486000C94860098
:1000D0000C9486000C9486000C9486000C94860088
:1000E0000C9486000C94860011241FBECFEFCDBF68
:1000F000DFE7DEBF20E4A0E0B0E401C01D92A43041
:10010000B207E1F70E94B4000C9408010C940000BF
:100110001F920F920FB60F9211248F939F93AF935C
:10012000BF938091060B80FF16C081E08093060B81
:100130008091004090910140A0910240B091034015
:100140000196A11DB11D8093004090930140A093A2
:100150000240B0930340BF91AF919F918F910F9058
:100160000FBE0F901F90189588ED84BF109260000D
:1001700084BF94E29093680084BF81E08093610023
:10018000E0E4F4E090E491839683E0E0FBE090818A
:100190009E7F908320E737E1248735871286138678
:1001A00011828683858383E08083789421E0C0E494
:1001B000D4E030E4868180FF14C026838091004023
:1001C00090910140A0910240B09103400196A11D81
:1001D000B11D8093004090930140A0930240B093E2
:1001E00003408091004090910140A0910240B09165
:1001F0000340843F9140A105B105E0F23F83109296
:100200000040109201401092024010920340D2CF61
:04021000F894FFCF90
:00000001FF
