S028000064617930365F746362305F706572696F6469635F6F76665F696E745F6D6F64652E737265638A
S11300000C9474000C9486000C9486000C94860066
S11300100C9486000C9486000C9486000C94860044
S11300200C9486000C9486000C9486000C94860034
S11300300C9488000C9486000C9486000C94860022
S11300400C9486000C9486000C9486000C94860014
S11300500C9486000C9486000C9486000C94860004
S11300600C9486000C9486000C9486000C948600F4
S11300700C9486000C9486000C9486000C948600E4
S11300800C9486000C9486000C9486000C948600D4
S11300900C9486000C9486000C9486000C948600C4
S11300A00C9486000C9486000C9486000C948600B4
S11300B00C9486000C9486000C9486000C948600A4
S11300C00C9486000C9486000C9486000C94860094
S11300D00C9486000C9486000C9486000C94860084
S11300E00C9486000C94860011241FBECFEFCDBF64
S11300F0DFE7DEBF20E4A0E0B0E401C01D92A4303D
S1130100B207E1F70E94C1000C941A010C9400009C
S11301101F920F920FB60F9211240BB60F928F936A
S11301209F93AF93BF93EF93FF938091060B81FF4F
S11301301BC0E0E0FBE082E0868380E998EE8287E2
S113014093878091004090910140A0910240B0912A
S113015003400196A11DB11D80930040909301407E
S1130160A0930240B0930340FF91EF91BF91AF91F0
S11301709F918F910F900BBE0F900FBE0F901F9009
S1130180189588ED84BF1092600084BF94E2909328
S1130190680084BF81E080936100E0E4F4E080E4DF
S11301A081838583E0E0FBE0108211828FEF9FEF73
S11301B08487958780E998EE8287938783E0868396
S11301C092E095838083789442E020E938EEC0E49D
S11301D0D4E050E4868181FF16C0468322873387AA
S11301E08091004090910140A0910240B091034061
S11301F00196A11DB11D8093004090930140A093EE
S11302000240B09303408091004090910140A0913E
S11302100240B0910340843F9140A105B105D0F262
S11302205F8310920040109201401092024010929D
S10B02300340D0CFF894FFCF86
S9030000FC
