S01900007463616F5F70776D5F6F6E5F776F305F322E737265636F
S11300000C9474000C947E000C947E000C947E007E
S11300100C947E000C947E000C947E000C947E0064
S11300200C947E000C947E000C947E000C947E0054
S11300300C947E000C947E000C947E000C947E0044
S11300400C947E000C947E000C947E000C947E0034
S11300500C947E000C947E000C947E000C947E0024
S11300600C947E000C947E000C947E000C947E0014
S11300700C947E000C947E000C947E000C947E0004
S11300800C947E000C947E000C947E000C947E00F4
S11300900C947E000C947E000C947E000C947E00E4
S11300A00C947E000C947E000C947E000C947E00D4
S11300B00C947E000C947E000C947E000C947E00C4
S11300C00C947E000C947E000C947E000C947E00B4
S11300D00C947E000C947E000C947E000C947E00A4
S11300E00C947E000C947E0011241FBECFEFCDBF74
S11300F0DFE7DEBF0E94C6000C9423010C940000CD
S11301001092E60581E080930104E0E0FAE01082B9
S113011083E1818384E290E086A397A382E190E067
S113012080A791A78BE0808308952091260A3091BF
S1130130270AA90160E070E09A01AB012F5F3F4FED
S11301404F4F5F4FA82FB0E00E94090124E630E032
S113015040E050E00E94E700DA01C901232B242B80
S1130160252B19F00197A109B1098093280A9093CE
S1130170290A089588ED84BF94E29093680084BFAF
S11301801092600084BF1092610008950E94BA002A
S11301900E948000C0E00AC08C2F0E94950083ED6D
S11301A090E30197F1F700C00000CB5FC536A0F3E0
S11301B0C4E60AC08C2F0E94950083ED90E301975A
S11301C0F1F700C00000C550CC23A4F7E3CFA1E2AF
S11301D01A2EAA1BBB1BFD010DC0AA1FBB1FEE1FBD
S11301E0FF1FA217B307E407F50720F0A21BB30B08
S11301F0E40BF50B661F771F881F991F1A9469F784
S113020060957095809590959B01AC01BD01CF01DF
S113021008950E941401A59F900DB49F900DA49F72
S1130220800D911D11240895A29FB001B39FC001B8
S1130230A39F700D811D1124911DB29F700D811D0E
S10D02401124911D0895F894FFCFD6
S9030000FC
