S028000064617930365F746361305F706572696F6469635F6F76665F696E745F6D6F64652E737265638B
S11300000C9474000C9486000C9486000C94860066
S11300100C9486000C9486000C9486000C94880042
S11300200C9486000C9486000C9486000C94860034
S11300300C9486000C9486000C9486000C94860024
S11300400C9486000C9486000C9486000C94860014
S11300500C9486000C9486000C9486000C94860004
S11300600C9486000C9486000C9486000C948600F4
S11300700C9486000C9486000C9486000C948600E4
S11300800C9486000C9486000C9486000C948600D4
S11300900C9486000C9486000C9486000C948600C4
S11300A00C9486000C9486000C9486000C948600B4
S11300B00C9486000C9486000C9486000C948600A4
S11300C00C9486000C9486000C9486000C94860094
S11300D00C9486000C9486000C9486000C94860084
S11300E00C9486000C94860011241FBECFEFCDBF64
S11300F0DFE7DEBF20E4A0E0B0E401C01D92A4303D
S1130100B207E1F70E94B0000C9402010C940000C5
S11301101F920F920FB60F9211248F939F93AF9358
S1130120BF9381E080930B0A80910040909101403D
S1130130A0910240B09103400196A11DB11D80938E
S1130140004090930140A0930240B0930340BF91BC
S1130150AF919F918F910F900FBE0F901F901895A4
S113016088ED84BF1092600084BF94E2909368008D
S113017084BF81E080936100E0E4F4E090E4918343
S11301809583E0E0FAE090819D7F908311822BEDCE
S113019035E026A337A38387828787E0808378941A
S11301A021E0C0E4D4E030E4838580FF14C02387D9
S11301B08091004090910140A0910240B091034091
S11301C00196A11DB11D8093004090930140A0931E
S11301D00240B09303408091004090910140A0916F
S11301E00240B0910340843F9140A105B105E0F283
S11301F03F831092004010920140109202401092EE
S10B02000340D2CFF894FFCFB4
S9030000FC
