:100000000C9474000C9486000C9486000C9486006A
:100010000C9486000C9486000C9486000C94A0002E
:100020000C9486000C9486000C9486000C94860038
:100030000C9486000C9486000C9486000C94860028
:100040000C9486000C9486000C9486000C94860018
:100050000C9486000C9486000C9486000C94860008
:100060000C94C4000C9486000C9486000C948600BA
:100070000C9486000C94B2000C9486000C948600BC
:100080000C9486000C9486000C9486000C948600D8
:100090000C9486000C9486000C9486000C948600C8
:1000A0000C9486000C9486000C9486000C948600B8
:1000B0000C9486000C9486000C9486000C948600A8
:1000C0000C9486000C9486000C9486000C94860098
:1000D0000C9486000C9486000C9486000C94860088
:1000E0000C9486000C94860011241FBECFEFCDBF68
:1000F000DFE7DEBF20E4A0E0B0E401C01D92A53040
:10010000B207E1F70E94E8000C9461010C94000032
:100110009C01E0E0FAE090819E7F908310A211A202
:1001200026A337A381E0838780818160808308953F
:10013000E0E0FAE080818E7F808381E0838708950C
:100140001F920F920FB60F9211248F9381E080932C
:100150000B0A80E4809347048F910F900FBE0F909D
:100160001F9018951F920F920FB60F9211248F9324
:1001700080E88093490481E0809303408F910F9041
:100180000FBE0F901F9018951F920F920FB60F92EF
:1001900011240BB60F922F933F938F93EF93FF93FE
:1001A000E0E0F6E081E085872089318920930040F6
:1001B0003093014080930240FF91EF918F913F91E6
:1001C0002F910F900BBE0F900FBE0F901F901895A0
:1001D000C0E4D4E010E41D83198380E88A838BE0B7
:1001E0008F8B94E090937304E0E0FAE0118281E059
:1001F000828720ED33E026A337A310A211A22EE0C0
:10020000208325E02093A000E0E0F6E0928393E0D5
:1002100090878487808378940E9498001D83109231
:100220000440D1E000E414E0C0E40F2EE12CF6E03D
:10023000FF2EF02DDD2E6894CC24C1F88091034070
:10024000882311F110920340809104408130E1F045
:1002500018F0823061F012C0D0920440F801C583DA
:1002600080ED93E00E948800F701D2870DC00E94C4
:100270009800F801C5831092044006C00E949800BF
:10028000F801C58310920440809102408823B1F2A6
:100290001092024080910440813081F680910040AC
:1002A000909101408F319C4048F0C0920440F80189
:1002B000C58383EF90E00E948800C0CFF701D2870A
:0602C000BDCFF894FFCF52
:00000001FF
