S01900007463616F5F70776D5F6F6E5F776F305F322E737265636F
S11300000C9474000C947E000C947E000C947E007E
S11300100C947E000C947E000C947E000C947E0064
S11300200C947E000C947E000C947E000C947E0054
S11300300C947E000C947E000C947E000C947E0044
S11300400C947E000C947E000C947E000C947E0034
S11300500C947E000C947E000C947E000C947E0024
S11300600C947E000C947E000C947E000C947E0014
S11300700C947E000C947E000C947E000C947E0004
S11300800C947E000C947E000C947E000C947E00F4
S11300900C947E000C947E000C947E000C947E00E4
S11300A00C947E000C947E000C947E000C947E00D4
S11300B00C947E000C947E000C947E000C947E00C4
S11300C00C947E000C947E000C947E000C947E00B4
S11300D00C947E000C947E000C947E000C947E00A4
S11300E00C947E000C947E0011241FBECFEFCDBF74
S11300F0DFE7DEBF0E9480000C9498000C9400009F
S113010081E0809301041092000A8FED9EE28093B7
S1130110260A9093270A80E797E18093280A909310
S1130120290A83E18093010A83E08093000AFFCFC8
S1070130F894FFCF6D
S9030000FC
